:0300000002018575
:0C018500787FE4F6D8FD75810E0201CCF5
:0F02DC00010900010A00010B00010800010C00DC
:10026700F5907F1E7E0012027CE59054F04403F562
:05027700907F1E7E00D7
:10027C00D3EF9400EE648094804015E4FDFC0DBD3A
:10028C0000010CBC01F8BD90F5EF1F70E31E80E07F
:01029C00223F
:04001600AB07AA0684
:10001A0090000043920F5391F07F647E0012027C9D
:10002A00D3EB9400EA64809480405A0582E582709A
:10003A00020583D39BEA6480F8E5836480984003D1
:10004A000200EDE59054F04401120267E59054F085
:10005A004402120276E59054F04406120276E590C4
:10006A0054F04404120276E59054F0440C120276DD
:10007A00E59054F04408120276E59054F0440912CF
:10008A000276020035C3E49BFFE49AFE0582E5820C
:10009A0070020583D39FEE6480F8E58364809850EC
:1000AA0042E59054F04408120276E59054F0440C6C
:1000BA00120276E59054F04404120276E59054F068
:1000CA004406120276E59054F04402120267E59063
:1000DA0054F04401120276E59054F0440912027673
:0C00EA0002008F5390F05392F043910FEE
:0100F60022E7
:0B000600C288D2A8C28AD2AAD2AF22C0
:0A02FB0075AAFF75AB0F43AB80221C
:04030A0053AB7F2250
:03000300020305F0
:05030500C2A8D2A832DD
:03001300020211D5
:10021100C0E0C0D075D000C002C003C004C005C09A
:0302210006C0070D
:10022400E4FBFAC2AA7F1EFE12027C30B322120241
:100234007830B30B0BBB00010ABA01F2BBF4EFC375
:10024400EB9464EA94005005750B028003750B016E
:02025400D2AA2C
:10025600D007D006D005D004D003D002D0D0D0E04D
:010266003265
:10029D00E50970117509017FE77EFF1200167F2DAC
:0602AD007E001200162283
:1002B300E5096401700FF5097F19FE1200167FD35B
:0602C3007EFF120016226E
:1002C90075080130B206E4F50902029D75090112AB
:0302D90002B3224B
:0F02EC0012030AE4F50CF5087F887EFF02001666
:04030E0075870222CB
:1000F700E4F50DF50E7FE87E0312027C120006E59B
:100107000B14601B14702AE4F50BE5087023E5094E
:10011700600814701C1202B3801712029D8012E44B
:10012700F50BE50860081470081202EC8003120250
:10013700C9E5086401703B30B210E50C6401700535
:1001470012030AF50C12029D802820B225E50C70D7
:100157000A750C01F50DF50E1202FB050EE50E7082
:1001670002050DD3940FE50D9400400612030A1201
:0E01770002B312030E7F0A7E0012027C80810A
:100191000200F7E493A3F8E493A34003F68001F28D
:1001A10008DFF48029E493A3F85407240CC8C3336F
:1001B100C4540F4420C8834004F456800146F6DF3E
:1001C100E4800B01020408102040809002DCE47EF0
:1001D100019360BCA3FF543F30E509541FFEE49333
:1001E100A360010ECF54C025E060A840B8E493A3FA
:1001F100FAE493A3F8E493A3C8C582C8CAC583CA25
:10020100F0A3C8C582C8CAC583CADFE9DEE780BEDC
:0102EB000012
:00000001FF
